:020000040800F2
:10000000684A002419040008599300083B050008B9
:100010003B050008D92200089BA80008000000004A
:100020000000000000000000000000002B04000899
:10003000612B0008000000008704000825960008D6
:1000400033040008330400083304000833040008B4
:100050003304000833040008892B00083304000827
:1000600033040008A72B000833040008DD22000831
:100070003304000833040008330400083304000884
:100080003304000833040008330400083304000874
:100090003304000833040008330400083304000864
:1000A0003304000833040008330400083304000854
:1000B0003304000833040008330400083304000844
:1000C0003304000833040008330400083304000834
:1000D0003304000833040008330400083304000824
:1000E000932B0008330400080000000033040008CC
:1000F0003304000833040008330400083304000804
:1001000033040008330400083304000833040008F3
:10011000330400083304000833040008159A00086B
:1001200033040008330400083304000833040008D3
:1001300033040008330400083304000833040008C3
:1001400000000000000000000000000000000000AF
:1001500033040008330400083304000833040008A3
:100160003304000833040008330400083304000893
:1001700033040008330400083304000800000000C2
:100180003304000833040008330400083304000873
:100190003304000833040008330400083304000863
:1001A0003304000833040008330400080000000092
:1001B0003304000833040008330400083304000843
:1001C00033040008330400080000000000000000B1
:1001D00000000000000000003304000800000000E0
:1001E000000000000000000000000000000000000F
:1001F0000000000000000000330400083304000881
:100200003304000833040008000000003304000831
:1002100033040008330400083304000833040008E2
:100220003304000800000000330400080000000050
:100230003304000833040008000000003304000801
:1002400033040008330400083304000833040008B2
:1002500033040008330400083304000833040008A2
:100260003304000833040008330400083304000892
:1002700033040008330400083304000800000000C1
:100280003304000833040008330400083304000872
:1002900000000000330400083304000800000000E0
:1002A0000000000033040008330400083304000891
:1002B0003304000833040008330400083304000842
:1002C00033040008330400083304000800F002F887
:1002D00000F092F80AA090E8000C82448344AAF14E
:1002E0000107DA4501D100F087F8AFF2090EBAE84C
:1002F0000F0013F0010F18BFFB1A43F0010318475A
:1003000004C2000024C20000103A24BF78C878C19B
:10031000FAD8520724BF30C830C144BF04680C600B
:10032000704700000023002400250026103A28BF53
:1003300078C1FBD8520728BF30C148BF0B60704757
:100340006E2900F05783702900F0B18666290BF002
:100350009A8765290BF0978767290BF094876129A5
:100360000BF0938703681B0A28BF41F080016929BD
:1003700000F00483642900F00183752900F0FE82F7
:100380006F2900F03E86782900F07D86E92900F08B
:10039000D985E42900F0D685F52900F0D385EF2929
:1003A00000F03B86F82900F07C860368DB0928BF53
:1003B00041F08001632901F0EF80732901F0F4809E
:1003C000E32901F0FF80F32901F004810020704748
:1003D0001FB50BF053FF00F075FE04000020002154
:1003E0000BF036FF401C6060002000210BF01AFF6C
:1003F000E0601FBD10B510BD01F086F91146FFF792
:10040000E7FF01F0BCFD01F0ADF903B4FFF7F2FF27
:1004100003BC01F0E5F9000009488047094800479E
:10042000FEE7FEE7FEE7FEE7FEE7FEE7FEE7FEE7A4
:10043000FEE7FEE704480549054A064B7047000001
:1004400035990008CD02000868440024684A002459
:100450006846002468460024EFF3108072B67047A7
:1004600080F310887047434A1368012B04D04FF083
:1004700001031360404A1060404A116040484FF049
:10048000805101607047EFF3108272B639480168FD
:1004900051B34FF0000101603748016891B1EFF3AB
:1004A00009811EF0100F08BF21ED108B21E9F00F1C
:1004B0004FF000041EF0100F08BF012441F8044D56
:1004C000006801602D490968096808C9B1E8F00FA2
:1004D000002B18BFB1EC108B81F309884EF0100E81
:1004E000002B18BF2EF0100E82F310884EF0040E71
:1004F000704722490860EFF3148222F0040282F36D
:1005000014881D494FF0000008601A494FF001009F
:1005100008601C484FF47F01D0F8002041EA020136
:10052000016017484FF0805101601748006800686B
:1005300080F3088861B662B670471EF0040F0CBFE6
:10054000EFF30880EFF3098020E9F00F40F804EDA5
:1005500040F804ED1EF0040F0CBF80F3088880F310
:10056000098800B50AF060FD5DF804EB4EF0040E5A
:1005700070470000A8000024A0000024A40000246C
:1005800004ED00E020ED00E008ED00E053EA020C8D
:1005900000F069802DE9F04B4FF00006002B1FBFE3
:1005A000B3FA83F503FA05F424FA05F65E4012BFA8
:1005B0001643B2FA82F502FA05F4C5F120051EBF12
:1005C00022FA05FC44EA0C04203556EA044C4FEAB2
:1005D000144418BF641C4FF000084FF0000990420B
:1005E00071EB030C39D3002919BFB1FA81F701FA75
:1005F00007F6B0FA80F700FA07F6C7F120071EBF2A
:1006000020FA07FC46EA0C062037B6FBF4FCA7EB01
:100610000507103F07F01F0BCBF120060CFA0BFB70
:100620002CFA06F644BFB3460026202FA4BF5E4630
:100630004FF0000B5BEA060C08BF4FF0010B19EB03
:100640000B09ABFB027C48EB0608C01B06FB02CC87
:100650000BFB03CC71EB0C01C1E70B460246414694
:100660004846BDE8F08B13B54FF000004FF0000195
:10067000AFF30080BDE81C40704700007CB51D460C
:1006800016460C00009001D02044401E074B7B44CE
:100690002A4669460190304600F0D5FB05461CB15C
:1006A0000020694600F0E2FB28467CBDE50700001B
:1006B0000FB41CB5084B06AA7B4469460090059808
:1006C00000F0C1FB04460020694600F0CFFB204645
:1006D0001CBC5DF814FB0000B10700002DE9F05FC1
:1006E000894604464FF0000ADFF874B1FB44C0F8B5
:1006F00020A02046E1688847002874D0252806D02D
:10070000D4E901219047206A401C2062F1E70026CD
:100710005F462046E16888472028054607DB312DE3
:1007200005D2781910F8200C08B10643F1E7B0079C
:1007300001D526F00406C4F81CA00027C4F818A0B0
:100740002A2D09D028460AF005F938B304EB8708AA
:10075000303DC8F8185019E059F8041B204604EB46
:1007600087029161E1688847012F054618D1E06949
:10077000002820DA26F020061DE0D8F8180000EB4B
:10078000800005EB40003038C8F818002046E168CA
:10079000884705460AF0DEF80028EED1012F0AD07E
:1007A0002E2D08D12046E16888477F1C0546022F80
:1007B00046F02006C4DBA069002803DA404246F078
:1007C0000106A061F00701D026F010066C2D0BD0B9
:1007D000682D09D04C2D39D06A2D35D0742D35D0E7
:1007E0007A2D33D016E038E0E1682F46204688475E
:1007F000B842054609D16C2F26D04FF48060E168DD
:10080000064320468847054604E06C2F1AD04FF473
:10081000807006430DB3A5F14100192802D8203598
:1008200046F400664A462946204626604E46FFF7B3
:1008300087FD80B101280BD0F61D26F0070000F1DE
:10084000080956E74020E4E78020D8E70020D6E7F3
:1008500006F104094DE7284652E7206ABDE8F09FFB
:1008600000BD00004FF0000200B5134694469646C6
:10087000203922BFA0E80C50A0E80C50B1F12001B3
:10088000BFF4F7AF090728BFA0E80C5048BF0CC061
:100890005DF804EB890028BF40F8042B08BF7047BF
:1008A00048BF20F8022B11F0804F18BF00F8012B31
:1008B000704770477047704770B504468569006897
:1008C000C10601D5302600E02026C00707D070BD44
:1008D000D4E9012130469047206A401C20626D1EF9
:1008E000F6D570BD70B5044685690078C00707D19C
:1008F00070BDD4E9012120209047206A401C20626D
:100900006D1EF6D570BD09684A0501D540B2704725
:10091000C905FCD500B2704709684A0501D5C0B2C7
:100920007047C905FCD580B2704770B50C460546C6
:10093000012A05D02878800600D5EA69002302E064
:10094000012305E05B1C934202D2E05C0028F9D150
:10095000A869E618C01AA861286A184428622846BF
:10096000FFF7AAFF04E0D5E9012114F8010B904735
:10097000B442F8D32846FFF7B5FF70BD2DE9F0412A
:100980000646002410687529314616A510D0FFF7D9
:10099000BAFF002802DA404213A507E031688A074F
:1009A00001D512A502E0490704D511A5012401E0F3
:1009B000FFF7B2FF00210A2206F1240709E0B0FB8D
:1009C000F2FCB0FBF2F302FB1C0030307854184606
:1009D000491C0028F3D123462A463046BDE8F041A1
:1009E00000F0B9BB000000002D0000002B0000004B
:1009F0002000000011680268006A530501D50870E4
:100A00000AE0D30501D5088006E0130603D5C21716
:100A1000C1E9000200E008600120704770472DE93D
:100A2000FF4F0C461E464FF0FF378BB0D2E9000156
:100A3000DDF860800A908A46C1F30A5505B93D4643
:100A4000002108464FF00000BAF1000F00F440000A
:100A500005DA00EB80004FF4400101EA50004FEA54
:100A60009059B9F1010F00DDB9460A9850EA4A00E1
:100A70000ED044F61050A5F2FF3545432F14B8F1BF
:100A8000000F1ED07542291E1EDDC9F100021CE0B8
:100A9000B8F1010F4FF0000001D0302103E0F24324
:100AA00005E02154401CB042FBDB3046002200210F
:100AB00021540B99C1F80880C1E900200FB0BDE8AE
:100AC000F08FBD1B6D1CDEE74A4600DA694206A8BE
:100AD00000F084FD06AB93E8070003AB83E8070052
:100AE00050460A9900F083FE8DE80700A0F50050FB
:100AF0001F3800900398002D0ADD42F21F014A467C
:100B00000844002303A90390684601F0ECF809E0CB
:100B1000A0F500504A461F38002303A903906846F9
:100B200001F0F6F88DE807000004000C03D04FF048
:100B3000FF30410800E01046B8F1000F03D000225A
:100B4000009215461EE0751E05D400F0BFFA303243
:100B500062556D1EF9D5B3460122084302D000222A
:100B60007F1C04E02078302801D100227F1E002A5B
:100B7000099784D01DE0112D07DA00F0A7FA303272
:100B800062556D1C50EA0102F5D1084302D000986D
:100B9000C8B10EE00021681E05E0235C625C63546E
:100BA0002254401E491C8142F7DBAB46A81B401E65
:100BB0000990002004F80B000B98099AC0F80880EF
:100BC000C0E9002B7AE711264FF0000857E72DE91E
:100BD000F04F88460446D21D22F0070191B0D1E9BA
:100BE0000001CDE90A0109F05AFE02460B98C00F38
:100BF00001D02D2007E02068810701D52B2002E0DD
:100C0000202101EAC000032A099001D0072A05DB50
:100C100003464146204600F075FC0BE12078800633
:100C200001D5E06900E00620B8F1650F814606D0E5
:100C3000B8F1660F18D0B8F1670F70D131E000201D
:100C4000B9F1110F009001DB112301E009F101035B
:100C50000AAA01A90CA8FFF7E2FEDDE90C70002644
:100C600009F10105834647E001204B4600904FF013
:100C700000470AAA01A90CA8FFF7D1FEDDE90DB0D3
:100C80000C995D46002610B909F101000D18B9EB69
:100C9000050003D4C0F1FF3609F10105A5EB0900F9
:100CA0002BE0B9F1010F01DA4FF001090020B9F191
:100CB000110F0090484601DD112300E003460AAA07
:100CC00001A90CA8FFF7ABFEDDE90C704D4600262C
:100CD0008346207800070AD4AB4500DA5D4601A8B8
:100CE000012D04DD411911F8011C302907D04F45B1
:100CF00002DA17F1040F04DA012082460FE06D1EBC
:100D0000EEE7002F02DCED1B3E4403E0781CA84216
:100D100000DD7D1CB81B00F1010A4FF00047207870
:100D2000000703D4AA4501DB4FF0FF3A0021B7F1D9
:100D3000004F0DF143088DF8431024D002202B23DF
:100D4000002F01DA7F422D230A21021EA0F10100AB
:100D500000DC5FB197FBF1FC97FBF1F201FB1C7C1F
:100D600017460CF1300C08F801CDEEE7A8F10100B0
:100D700003702188090501D5452100E06521A0F116
:100D8000010800F8011C09980FA9A1EB0807FF1D35
:100D900000B10120411901EBEA70A1693844081A39
:100DA000401EA0612078C00602D42046FFF784FDD3
:100DB000099828B1D4E901219047206A401C20629B
:100DC0002078C00622D52046FFF776FD1EE0002ED3
:100DD00004DBB34502DD01A8805D00E03020D4E9EA
:100DE00001219047206A401C2062761CAAF1010074
:100DF0005FEA000A0AD100F065F9C0680168405C4A
:100E0000D4E901219047206A401C2062281EA5F1E8
:100E10000105DCDC07E0D4E9012118F8010B90475B
:100E2000206A401C2062381EA7F10107F3DC20462F
:100E3000FFF758FD032011B041E6000001694A1C8C
:100E400002610878704700B58FB0CDE9013100210B
:100E5000059105497944CDE9031011466846FFF72D
:100E60003DFC0FB000BD0000E5FFFFFF0A6802F87F
:100E7000010B0A607047D1E900239A4202D2531C49
:100E80000B601070704700002DE9FF5F15468A4621
:100E90000446DFF8AC80F8440027D8E900103E464D
:100EA000CDE9001010E03AF816106A4602A800F0EA
:100EB00007FC411C07D02178890603D5E26939185F
:100EC00091420DD80744761C2078800602D5E0694F
:100ED000B84205DDAE42E6DB3AF816000028E2D162
:100EE000A069C01BA0612046FFF7E6FCD8E900100E
:100EF000CDE90010002017E03AF818106A4602A861
:100F000000F0DEFBB0F1FF3F81460BD000250DF174
:100F1000080B05E0D4E901211BF8050090476D1C82
:100F20004D45F7D308F10100B0428046E4DB206A6A
:100F3000384420622046FFF7D5FCBDE8FF9F000043
:100F40006AB500002DE9F0418046D21D22F007026B
:100F50000025D2E90002F52915A614D0011E72F170
:100F6000000106DA0023D0EB030063EB020211A6B6
:100F700008E0D8F800108B0701D50FA602E049075A
:100F800001D50EA601251146002408F1240704E02E
:100F900000F09CF830323A55641C50EA0102F7D157
:100FA0002B46324621464046BDE8F04100F0D3B81A
:100FB000000000002D0000002B00000020000000B9
:100FC00030B4002100F1240408E002F00705D20843
:100FD000303542EA4372DB086554491C52EA030586
:100FE000F3D10468002310A2250707D5A40600D476
:100FF00021B1C46901230DA2641EC46130BC00F09C
:10100000AAB810B5044621461068FFF785FC0246D1
:101010002046BDE810400023D2E7D21D22F0070190
:10102000D1E90023CCE70000000000003000000000
:10103000F0B40D460188090502D5214C7C4402E03C
:101040001F4C7C440E34002100F1240608E002F01D
:101050000F071209E75D42EA03721B097754491C26
:1010600052EA0307F3D102780023120704D5702D4A
:1010700006D009B1022311342246F0BC00F06BB84F
:1010800001231034F8E770B504460D462146106878
:10109000FFF742FC024629462046BDE87040002387
:1010A000C6E7D21D22F00703D3E90023C0E7036897
:1010B000126843F0200303600823C3610023B7E7ED
:1010C000CCB30000004870472844002430B5B0F18C
:1010D0000A024FEA900E71F100034EEA817EB0EBF6
:1010E0000E0061EB91014FEA101E4EEA017E10EBFB
:1010F0000E0041EB11114FEA102E4EEA016E10EB7B
:101100000E0041EB11214FEA104E4EEA014E10EB5A
:101110000E0041EB1141401841F100014FEAD000AF
:1011200040EA41704FEAD10110EB80054FEA81049B
:1011300044EA907444EB01046D1944EB0404521B1F
:10114000A3414FF0000348BF0A3200D530BD401C18
:1011500041F1000130BD2DE9F0470D469946924618
:10116000044600F124080168880604D5E06921F0EE
:101170001001216000E00120A84201DD471B00E0D2
:101180000027A1697A1902EB0900081AA0612078EA
:10119000C00602D42046FFF78FFB002608E0D4E902
:1011A00001211AF806009047206A401C761C206234
:1011B0004E45F4DB2078C0060AD52046FFF77CFBBD
:1011C00006E0D4E9012130209047206A401C2062CB
:1011D000381EA7F10107F4DC07E0D4E9012118F873
:1011E00005009047206A401C2062281EA5F10105D9
:1011F000F3DC2046FFF776FB2078000602D50220BC
:10120000BDE8F0870120FBE72DE9F04F04460D46CD
:10121000D21D22F0070089B0D0E900974846394630
:1012200009F03DFB0246F80F01D02D2307E02068AE
:10123000810701D52B2302E0202101EAC0038DF8AC
:1012400020300BB1012000E00020032A824601D0AB
:10125000072A04DB2946204600F054F93FE12078B4
:10126000800601D40D2500E0E569C7F30A560D2D6F
:1012700049DA00214FEA175B08464FF00000002FC3
:1012800000F4400007DA00EB80004FF4400100EB6F
:10129000D07001EA60008115012901DD4FF0FF31B6
:1012A00000224FEA850CBCF1180F06D31346ACF1AF
:1012B00018004FF08052C24003E04FF4801323FA2D
:1012C0000CF30CF10C0CBCF1200F04D3ACF1200C8E
:1012D00009FA0CF001E007FA0CF000294FF0004881
:1012E00001DD18B90FE00ED140450CD319EB02090E
:1012F0005F4121B9404502D19F4329EA0209BBEB76
:10130000175F00D0761C2088000502D57B48784402
:1013100002E07A487844193808AA302302F80A30E3
:10132000037C0AF10101002E0AF1020A53546A46B5
:1013300002DC4FF0300101E04FF031014FF00108C5
:101340008DF8001002D0A6F2FF3603E059EA4701FB
:1013500000D06B4E002D02DC2178090704D54FF038
:1013600002082E218DF80110C44600210BE0C7F3BE
:1013700003433F01C35C491C6D1E02F80830052978
:1013800008F1010801DA002DF1DC00210CE000EB8E
:101390001973491C1B786D1E082902F808304FEAA2
:1013A000091908F1010801DA002DF0DC21688B062B
:1013B00002D516E0A8F10108E04505DD02EB0803BF
:1013C00013F8013C302BF5D0B8F1000F09DD02EB2A
:1013D000080313F8013C2E2B03D1090701D4A8F10F
:1013E0000108002D05DD3E2102F808106D1E08F1F0
:1013F0000108407C002E02F8080008F1010804DA18
:101400002D20764202F8080002E02B2002F80800A6
:101410000A214FF47A70864208F101080BDB96FB33
:10142000F0F3303302F8083096FBF0F308F10108CE
:1014300000FB136601E0642E0CDB642096FBF0F3E6
:10144000303302F8083096FBF0F308F1010800FB96
:10145000136601E00A2E06DB96FBF1F0303002F84D
:10146000080008F1010896FBF1F001FB1060303034
:1014700002F80800A16908F1010808EB050202EB77
:101480000A00081AA0612078C00602D42046FFF79F
:1014900013FA216A08AE01EB0A00206204E0D4E9E5
:1014A000012116F8010B9047BAF1010AF7D2207812
:1014B000C00602D52046FFF7FFF96E4609E016F890
:1014C000010B3E280FD0D4E901219047206A401C2F
:1014D0002062B8F10108F2D22046FFF703FA09B002
:1014E0000320BDE8F08F206A2844206203E0D4E99D
:1014F0000121302090476D1EEBD3F8E735B1000095
:1015000002FCFFFF2DE9F0411F4604460326016857
:10151000072A01F4006004DB08B116A505E016A552
:1015200003E008B115A500E015A521F0100020602A
:10153000A069C01EA0610FB1401EA0612046FFF748
:10154000BBF94FB1D4E9012138469047206A401CCD
:101550002062C01C206206E0206AFAE7D4E901217B
:1015600015F8010B9047761EF8D22046FFF7BAF91E
:10157000BDE8F0814E414E006E616E00494E46005E
:10158000696E660010B5436913B1AFF3008001E0E6
:10159000FFF7CBF9012010BD127800F124010A7089
:1015A00000224A700122EDE711684FF0FF32E9E7AF
:1015B00010B5436913B1AFF3008001E0FFF764FC9D
:1015C000012010BD128800F1240182840022C2840F
:1015D0000122EDE711684FF0FF32E9E72DE9F0470E
:1015E000814616468AB0354878440DC88DE80D000E
:1015F00032487844801C03AC0DC884E80D0041F6E5
:101600009B300844372190FBF1F290FBF1F5A5F1F6
:10161000800501FB12041B3C02D56442012000E05E
:101620000020DFF898A080460027FA44AAF1BE0AFD
:101630000EE0E0070AD03246684607EB4701012377
:101640000AEB810100F064FB8DE8070064107F1C49
:10165000002CEED1194F7F44AE3F19E0E80715D0BA
:1016600007EB04100DF1180A90E80E008AE80E004E
:10167000C068F04201D1981908903246012306A9AA
:1016800003A800F045FB03AB83E807006D10641C62
:10169000002DE3D14FF0010332466946B8F1000F47
:1016A00003A802D000F01FFB01E000F031FBC9E904
:1016B0000001C9F808200AB0BDE8F087ECAE0000D0
:1016C00070B516460C46054600F044F8036893F8DA
:1016D0000101012806D0FF2C0FD8185D68B1012048
:1016E0002C7070BDD3F807013246214603F2071370
:1016F00003442846BDE8704018474FF0FF3070BDE6
:1017000000487047084400247546FFF7F9FFAE46CD
:1017100005006946534620F00700854618B020B5FD
:10172000FEF788FEBDE820404FF000064FF00007AE
:101730004FF000084FF0000B21F00701AC46ACE879
:10174000C009ACE8C009ACE8C009ACE8C0098D46E6
:101750007047000010B5FFF7B5FC001D10BD00BFBD
:10176000F1AA000010B50446AFF300802046BDE8A2
:101770001040FEF74ABE00004FF0013C50F8042B29
:1017800051F8043B9A4215D1A2EB0C03934313EAA0
:10179000CC130BD150F8042B51F8043B9A4209D1D9
:1017A000A2EB0C03934313EACC13E7D04FF00000F5
:1017B000704700BFD01A01BAB1FA81F101F01801E7
:1017C00022FA01F0CB40C1F12001DBB2C0B2C01A55
:1017D0002CFA01F3D11A914311EAC311E6D17047F3
:1017E00001491820ABBEFEE72600020070475FEA01
:1017F000400C08BF91F0000F4FEA8C234FEAC12242
:1018000043EA51514FEA1C5018BF00F5F0404FEA2F
:10181000300018BF41F000415FEA6C5C00F02980A5
:10182000BCF1FF3F08BF40F080407047130C06BF7B
:1018300012044FF0100C4FF0000C130E04BF1202F4
:101840000CF1080C130F04BF12010CF1040C930FE0
:1018500004BF92000CF1020CD30F04BF52000CF134
:10186000010C11464FF00002A0F11F00A0EB0C008C
:10187000704711F0004F08BF704731F000413FF44E
:10188000D5AF0B0C06BF09044FF0100C4FF0000C45
:101890000B0E04BF09020CF1080C0B0F04BF090169
:1018A0000CF1040C8B0F04BF89000CF1020CCB0F60
:1018B00004BF49000CF1010CCCF12003A0EB0C009B
:1018C00022FA03F302FA0CF241EA030100F10100EB
:1018D000704720F07F4C80EA030023F07F47ACEB99
:1018E000070303F57C5300F0004003F1FF032DE9EB
:1018F00080494FEA154B09B44FEA144325EA0B4ED1
:1019000024EA03480FF2042606EB132749083E7821
:101910005FEA320203FB0667C7F5000707FB06F61E
:101920004FEA54374FEAD64606F1020607FB066C2B
:10193000CCF1005C4FEA1C472CEA074C07FB06F48D
:101940000CFB06F504EB15464FEA961634BF002053
:101950004FF000404FEAD13706FB07FC4FEA1C4C22
:101960000CFB0BF7D21B03FB0CF761EB07010CFB25
:101970000EF7B0EB074072EB17420CFB08F734BFD1
:10198000A2EB0742B2EB074261EB17414FEA0C446E
:101990004FEA910706FB07FC4FEA1C4C0CFB0BF7C8
:1019A000B0EBC74072EB573203FB0CF734BFA2EB2E
:1019B000C742B2EBC74261EB57310CFB0EF7B0EBFD
:1019C000C70072EB57720CFB08F734BFA2EBC702DB
:1019D000B2EBC70261EB5771039F4FEA816141EAA5
:1019E000921104EBCC044FEAD1374FEA826206FB36
:1019F00007FC42EA90124FEA80604FEA1C4C0CFB55
:101A00000BF7D21B03FB0CF761EB07010CFB0EF786
:101A1000B0EB074072EB17420CFB08F734BFA2EBA8
:101A20000742B2EB074261EB17414FEA8C554FEA90
:101A3000910704EB9C2406FB07FC4FEA1C4C0CFBB3
:101A40000BF7B0EBC74072EB573203FB0CF734BF18
:101A5000A2EBC742B2EBC74261EB57310CFB0EF76A
:101A6000B0EBC70072EB57720CFB08F734BFA2EB68
:101A7000C702B2EBC70261EB577115EB4C254FEA79
:101A8000816141EA92114FEA82624FEAD13742EA1C
:101A9000901206FB07FC44F100044FEA80604FEA15
:101AA0001C4C0CFB0BF7D21B03FB0CF761EB070183
:101AB0000CFB0EF7B0EB074072EB17420CFB08F77C
:101AC00034BFA2EB0742B2EB074261EB174115EBC3
:101AD0001C154FEA813141EA92414FEA823242EAD3
:101AE00090424FEA80304FEA0C7644F1000448EA15
:101AF00003434EEA0B484FF0000EB2EB080C71EBBB
:101B0000030724BF624639464EEB0E0E4FF0000B22
:101B10000018524149414BEB0B0BB2EB080C71EB37
:101B200003077BF1000B24BF624639464EEB0E0ED5
:101B30004FF0000B0018524149414BEB0B0BB2EB3D
:101B4000080C71EB03077BF1000B24BF624639469A
:101B50004EEB0E0E51EA020718BF46F0010616EBD7
:101B60000E7655F1000254F1000103D5BDE889015C
:101B7000BDE80088BDE88901BDE80048B6195241BA
:101B800041EB0101A3F10103704780807F7E7D7CE2
:101B90007B7A7978777676757473727171706F6EFF
:101BA0006E6D6C6C6B6A6A696868676666656464AA
:101BB000636362616160605F5F5E5E5D5D5C5C5B34
:101BC0005B5A5A59595858575756565555555454A3
:101BD000535352525251515050504F4F4F4E4E4D01
:101BE0004D4D4C4C4C4B4B4B4A4A4A49494948484D
:101BF000484747474746464645454544444444438D
:101C000043434342424242414141002B9C4630D42F
:101C100077002BD01CB54FEA370703B44FF0100004
:101C20004FF01001BAF1000F06D0BCF1000FDCBF7D
:101C300040F0080040F008014FF000000FBCBDE884
:101C400010400BF1010BBBF1010F08BF5FEA170752
:101C500022BF12F1010211F101014FF0004143F1E5
:101C6000000300F0004043EA00007047F9D3570832
:101C7000D0E746EA064613F1400F4FEA16461FDD4D
:101C800013F1200FDFBF16430A46002120335B42C9
:101C9000BED0C3F1200746EA064602FA07F74FEA2C
:101CA000164646EA0706C3F1200722FA03F201FAB4
:101CB00007F721FA03F14FF0000342EA0702A7E712
:101CC00046EA020646EA06464FEA164646EA010694
:101CD000BCBF46EA0646360C4FF000034FF0000248
:101CE0004FF0000194E72DE9804C9A46934670B47A
:101CF00091E8380007C831EA400C48BF34EA430C89
:101D000003D5FFF7E6FDFFF780FFF0BCBDE8008CD0
:101D10002DE9804C9A46934670B491E8380007C884
:101D200010F0804F08BF13F0804F03D100F005F88A
:101D3000FFF76BFFF0BCBDE8008C20F07F4780EA26
:101D4000030023F07F4C07EB0C03A3F57C5300F05A
:101D50000040A3F1FE0392F0000F00F0B38095F075
:101D6000000F00F077802DE901494FEA11404FEA5A
:101D7000144621EA004800FB06FC24EA064708FB5B
:101D800006F607FB08F800FB07F718EB06484CEBD4
:101D9000164C4FEA124B18EB07484FEA15464CEB2E
:101DA000174022EA0B4E0BFB06FC25EA06470EFB0A
:101DB00006F607FB0EFE0BFB07F71EEB064E4CEB81
:101DC000164C4FF000061EEB074E4CEB174B18EB72
:101DD0000B0840F1000018EB0E0B58EB000840F127
:101DE00000008F1A4FF000013CBFC943661B14BFAF
:101DF000B5EB040C00213CBFC943F61B4FEA174466
:101E00004EEA8E0E27EA04454FEA1C4704FB0762A0
:101E10002CEA074C05FB07F70CFB05F604FB0CFC52
:101E200016EB074642EB174216EB0C4642EB1C4200
:101E30001BEB060658EB0202414146EA9E0601D51D
:101E4000BDE80189B619524141EB0101A3F101033B
:101E5000BDE801894FEA14454FEA114724EA0546D7
:101E600021EA074C05FB07F406FB07F70CFB06F11C
:101E700005FB0CFC11EB074144EB17444FEA1247FA
:101E800011EB0C4144EB1C4422EA074C05FB07F222
:101E900006FB07F70CFB06F605FB0CFC16EB0746EA
:101EA00042EB174216EB0C4642EB1C456A1854F104
:101EB000000148BF7047B619524141EB0101A3F13F
:101EC0000103704795F0000F37D04FEA11424FEAF7
:101ED000144721EA024624EA074C02FB07F106FBFD
:101EE00007F70CFB06F402FB0CFC14EB074441EB78
:101EF00017414FEA154714EB0C4441EB1C4125EA0E
:101F0000074C02FB07F506FB07F70CFB06F602FB86
:101F10000CFC16EB074645EB174516EB0C4645EB5C
:101F20001C42121951F1000148BF7047B6195241C5
:101F300041EB0101A3F1010370474FEA14454FEA59
:101F4000114724EA054621EA074C05FB07F106FB89
:101F500007F70CFB06F24FF0000605FB0CFC12EB3A
:101F6000074241EB174112EB0C4251EB1C4148BFB9
:101F70007047921841EB0101A3F10103704710B5BE
:101F80000AF01EF9002010BD70B5044643492068D0
:101F9000884203D042492068884208D141480068FD
:101FA00000F4403008B1012009E0002007E03E487D
:101FB000006800F4403008B1012000E00020B8B112
:101FC00005F068F805466068B0F5803F06D0B0F5CA
:101FD000003F04D0B0F5403F08D105E000BF606885
:101FE000000CB5FBF0F502E0AD0800E000BF2AE010
:101FF0004FF4002003F0EEFD05466068C0F31101C8
:10200000F9B980140C281CD2DFE800F01B06070881
:10201000090A0B111315171900BF00BF00BF00BF3D
:1020200000BF6068800C4000B5FBF0F50AE02D09A8
:1020300008E06D0906E0AD0904E0ED0902E02D0AB3
:1020400000E000BF00BF6D081848854206D8206830
:10205000806820F44070216888601DE01448854243
:1020600008D82068806820F4407040F480702168AF
:10207000886011E00F48854208D82068806820F405
:10208000407040F400702168886005E02068806836
:1020900040F440702168886070BD0000002002405C
:1020A000002102400823024008630258105E5F00CE
:1020B00020BCBE0040787D0170B50546AC6B206E3B
:1020C00000F0500098BB206E40F40070206620683D
:1020D000006800F00800A8B1206806F0C2FC10B348
:1020E0002068C06800F40050E8B9206E20F48070C9
:1020F0002066206E00F48050A8B9206E40F00100E8
:10210000206610E02068C06800F0030058B9206E17
:1021100020F480702066206E00F4805018B9206E84
:1021200040F001002066204601F018FA0CE0FFE7BD
:10213000206E00F0100018B1204601F011FA03E003
:10214000A06DC16C2846884770BD70B50546AC6B64
:10215000206E40F040002066606E40F00400606633
:10216000204601F0FDF970BD70B50446A56B284608
:1021700001F0F5F970BD000070B50446206806F066
:1021800052FC0646206806F053FC98B396BB2068C4
:10219000806800F00D0001280AD1206881681A4A81
:1021A0001140891C816000BF03202168086009E09C
:1021B000206E40F010002066606E40F00100606606
:1021C000012070BD03F072F8054614E003F06EF8CC
:1021D000401B02280FD92068806800F0010050B130
:1021E000206E40F010002066606E40F001006066D6
:1021F0000120E6E705E02068806800F00100002883
:10220000E4D10020DDE70000C0FFFF7F70B5044689
:10221000206806F00DFC002851D12068806829490B
:10222000084048B1206E40F010002066606E40F01B
:1022300001006066012070BD206806F0D9FB03F044
:1022400035F80546204A2168914203D01F4A21688B
:10225000914201D11E4900E01E49084606F0D0FB1C
:1022600006461A492068884201D1174800E02068D4
:102270002168884200D00EBB1AE0206806F0D8FB27
:1022800010B9206806F0B4FB03F010F8401B0228D8
:102290000ED92068006800F0010048B9206E40F0B7
:1022A00010002066606E40F0010060660120C2E709
:1022B0002068006800F001000028DED000BF002088
:1022C000B9E700003F0000800020024000210240EA
:1022D000002302400063025800BFFEE710B5024829
:1022E00001F046FC10BD0000440100240146374ABD
:1022F0000868904249D0354A18320868904244D064
:10230000324A3032086890423FD0304A483208683A
:1023100090423AD02D4A60320868904235D02B4A1C
:1023200078320868904230D0284A9032086890424B
:102330002BD0264AA8320868904226D0244A086842
:10234000904222D0224A1832086890421DD0204A7A
:1023500030320868904218D01D4A483208689042CE
:1023600013D01B4A6032086890420ED0184A783267
:102370000868904209D0164A90320868904204D00A
:10238000134AA8320868904201D1012000E00020E1
:10239000B0B10A78103A1823B2FBF3F000F007024C
:1023A0000C4B9A5CCA65032805D90A686FF30902C9
:1023B000121D8A6503E00A686FF309028A6503E06B
:1023C000086820F0FF008865886D704710000240A3
:1023D000100402409EC2000810B502682B4C03682E
:1023E000A34222D0294C14340368A3421DD0274CA9
:1023F00028340368A34218D0244C3C340368A34219
:1024000013D0224C50340368A3420ED01F4C6434C6
:102410000368A34209D01D4C78340368A34204D05A
:102420001A4C8C340368A34201D1012300E000233D
:102430008BB10378083B1424B3FBF4F1144B03EB8A
:1024400081030366124B8033436601F01F040123AE
:10245000A340836618E00378103B1824B3FBF4F123
:102460000C4B9A4204D80B4BA83B9A4200D308313C
:10247000094B03EB81030366074B8033436601F08E
:102480001F040123A340836610BD000008540258B6
:1024900000580258B8040240000802400179A9B36C
:1024A000082940D8204B02689A4222D01E4B143390
:1024B00002689A421DD01C4B283302689A4218D0F9
:1024C000194B3C3302689A4213D0174B50330268C1
:1024D0009A420ED0144B643302689A4209D0124BD0
:1024E000783302689A4204D00F4B8C3302689A42C8
:1024F00001D1012200E000224AB14A1E0B4B03EB3E
:102500008202C266094A4032026708E00BE04A1EB6
:10251000074B03EB8202C266054A403202674A1E3D
:1025200001239340436770470854025800590258EA
:1025300000090240014600208A69D2B98A6A32B194
:10254000012A0DD0022A03D0032A10D10EE000BFC9
:10255000CA6A02F08072B2F1807F00D1012007E0E8
:10256000CA6AB2F1C07F00D1012001E000E000BFE3
:1025700036E08A69B2F5005F1BD18A6A32B1012A5E
:1025800007D0022A03D0032A11D10AE000BF01209C
:102590000EE0CA6A02F08072B2F1807F00D10120A1
:1025A00006E0CA6AB2F1C07F00D1012000E000BF9E
:1025B00016E08A6A32B1012A05D0022A04D0032A21
:1025C0000CD103E000BF00BF012008E0CA6A02F09E
:1025D0008072B2F1807F00D1012000E000BF00BF17
:1025E00070470000F0B5856D846D984F0668BE4257
:1025F00070D0964F18370668BE426BD0934F303775
:102600000668BE4266D0914F48370668BE4261D028
:102610008E4F60370668BE425CD08C4F78370668B4
:10262000BE4257D0894F90370668BE4252D0874F7E
:10263000A8370668BE424DD0854F0668BE4249D0D5
:10264000834F18370668BE4244D0814F3037066842
:10265000BE423FD07E4F48370668BE423AD07C4FDC
:1026600060370668BE4235D0794F78370668BE427B
:1026700030D0774F90370668BE422BD0744FA837C2
:102680000668BE4226D0734F0668BE4222D0714F04
:1026900014370668BE421DD06E4F28370668BE420A
:1026A00018D06C4F3C370668BE4213D0694F503784
:1026B0000668BE420ED0674F64370668BE4209D036
:1026C000644F78370668BE4204D0624F8C37066884
:1026D000BE4201D1012600E000263EB1D0E91976C4
:1026E0007E60C66E16B1D0E91C767E60574F0668D4
:1026F000BE4249D0554F18370668BE4244D0534FAA
:1027000030370668BE423FD0504F48370668BE4259
:102710003AD04E4F60370668BE4235D04B4F7837BF
:102720000668BE4230D0494F90370668BE422BD073
:10273000464FA8370668BE4226D0454F0668BE42BF
:1027400022D0434F18370668BE421DD0404F303765
:102750000668BE4218D03E4F48370668BE4213D0C6
:102760003B4F60370668BE420ED0394F7837066857
:10277000BE4209D0364F90370668BE4204D0344F6F
:10278000A8370668BE4201D1012600E00026DEB16E
:1027900090F85C6006F01F073F26BE40AE600668FA
:1027A000366826F4802607683E600668736086688F
:1027B000402E04D10668B2600668F16044E0066805
:1027C000B1600668F2603FE0224F0668BE4222D048
:1027D000204F14370668BE421DD01E4F28370668AA
:1027E000BE4218D01B4F3C370668BE4213D0194F6B
:1027F00050370668BE420ED0164F64370668BE4298
:1028000009D0144F78370668BE4204D0114F8C3778
:102810000668BE4201D1012600E00026A6B190F86C
:102820005C6006F01F070126BE40666006687360A4
:102830008668402E04D10668B2600668F16003E045
:102840000668B1600668F260F0BD0000100002404A
:10285000100402400854025810B5002417480068BC
:1028600020F040701549086008460068086004E0E0
:10287000601CC4B2012008F023F94FF480510F48C6
:1028800002F0FCFC08B1C82CF2DBC82C01DB0120F3
:1028900010BD002404E0601CC4B2012008F010F94F
:1028A0004FF48051054802F0E9FC08B9F02CF2DB46
:1028B000F02C01DB0120EBE70020E9E700040258DF
:1028C0002DE9F0412DED028BB7EE000AB0EE408A03
:1028D00000F0FCF800F0D8F8FFF7BEFFCC2000F0C5
:1028E00001F9BE2000F0FEF800F0BCF8074600F049
:1028F000B9F80546072D05DDE843C5B2F843C7B270
:10290000002600E001262C46200204B2E01904B2A1
:1029100000EE104AB8EEC00BB6EE041B20EE010B21
:10292000BDEEC00B10EE100A04B22EB9BFEE000AC5
:1029300028EE000AB0EE408A00EE104AB8EEC00A57
:1029400028EE000AF2EE040A80EE201AB0EE418A68
:10295000B5EEC08AF1EE10FA11D20A2094FBF0F124
:1029600000FB114000EE100AF8EEC00AB2EE041AA5
:1029700080EE810A38EE400AB0EE408A10E00A206C
:1029800094FBF0F100FB114000EE100AF8EEC00AD3
:10299000B2EE041A80EE810A30EE080AB0EE408AE8
:1029A000B0EE480ABDEC028BBDE8F08100B587B0FF
:1029B00000BF0F48006840F002000D49086008465B
:1029C000006800F00200019000BF00BF4FF480508B
:1029D00002900120039004900320059002A905486D
:1029E00002F054FB00F050F8FFF736FF07B000BDCF
:1029F000E04402580004025810B51948006820F05D
:102A00004070174908600846006840F08070086010
:102A100000224FF48051124802F042FC022008F0DC
:102A20004FF8012211030E4802F03AFC0C480068EE
:102A300020F040700A4908600846006808600C20D1
:102A400008F03EF84FF48051054802F017FC08B139
:102A5000012400E00024322008F032F8204610BDA6
:102A60000004025870B50026012508E0FFF7C4FFF6
:102A70000446E00140EA6600C6B2681CC5B2082DF3
:102A8000F4DD304670BD000010B50F48006820F03E
:102A900040700D4908600846006840F0807008608A
:102AA00000224FF48051084802F0FAFB40F2EE2079
:102AB00008F006F801221103034802F0F1FB0F2091
:102AC00007F0FEFF10BD00000004025810B5FFF72C
:102AD000DBFFFFF7C1FECC2000F004F8442000F03B
:102AE00001F810BD70B504461C48006820F0407025
:102AF0001A4908600846006840F0807008600125A7
:102B000028E004F0010664108EB100224FF48051D9
:102B1000124802F0C5FB022007F0D2FF0122110388
:102B20000E4802F0BDFB3C2007F0CAFF10E0002277
:102B30004FF48051094802F0B3FB3C2007F0C0FF7E
:102B400001221103054802F0ABFB022007F0B8FF99
:102B5000681CC5B2082DD4DD70BD00000004025809
:102B60007047000008B500BF0648006840F010003C
:102B7000044908600846006800F01000009000BF9B
:102B800000BF08BDE844025810B5012002F070FAF9
:102B900010BD10B54FF4006002F06AFA4FF4004027
:102BA00002F066FA10BD10B5082002F061FA10BDFF
:102BB00072B600BFFEE70000F8B504460D461646A3
:102BC0000020009000BF94F85C00012801D1022091
:102BD000F8BD012084F85C0000BF2046FFF7CCFA66
:102BE0000746A7BB206E20F4885040F00200206604
:102BF000206805F4803141F0004106F08042114325
:102C00008268194B1A401143816000BF13E000989D
:102C1000401C00901549009888420CD3206E20F08B
:102C2000020040F01000206600BF002084F85C0025
:102C300000BF0120CCE720688168C90F0029E6D1D8
:102C4000206E20F0020040F00100206604E0FFE763
:102C5000206E40F01000206600BF002084F85C0069
:102C600000BF3846B4E70000C0FFFE3F00F8C325B0
:102C70002DE9F0439DB004460E464FF00008306841
:102C800000B100BF00BF94F85C00012803D102200E
:102C90001DB0BDE8F083012084F85C0000BF002077
:102CA00019901A9046492068884202D145480190FF
:102CB00001E000200190019850B9206E40F0200002
:102CC000206600BF002084F85C0000BF0120DFE721
:102CD000019805F0C1FE0746206805F0BDFE0028FA
:102CE00061D1002F5FD136492068884203D0354931
:102CF0002068884201D1344800E0344805463068F5
:102D000058B3A86820F4404071680843A8602C4973
:102D10002068884203D02B492068884201D12A4884
:102D200000E02A482849884209D1254805F085FE57
:102D30008146244805F081FE49EA000002E024486B
:102D400005F07BFE70BBB16830680843A96840F6A7
:102D50001F7291430843A8602BE0A86820F440400C
:102D6000A86017492068884203D016492068884225
:102D700001D1154800E015481349884209D110488F
:102D800005F05BFE81460F4805F057FE49EA00005A
:102D900002E00F4805F051FE20B9A86840F61F7107
:102DA0008843A86005E0206E40F0200020664FF0C8
:102DB000010800BF002084F85C0000BF404667E7C0
:102DC000002002400021024000230240006302581C
:102DD000006002582DE9F84F04460D464FF0000AF6
:102DE0000020009094F84400012800D105E0FE493D
:102DF0002068884200D100E000BFFC49E8688842B2
:102E000000D00EE0FA492068884200D100BFF9499D
:102E10002068884200D100BFF3492068884200D171
:102E200000BF00BF94F85C00012802D10220BDE879
:102E3000F88F012084F85C0000BF206805F007FED1
:102E4000002872D1E8492068884215D02068C169FD
:102E50002868C0F3130018B92868C0F3846004E040
:102E6000286890FAA0F0B0FA80F000F01F0201206C
:102E7000904001432068C1612168D5E9002001F13B
:102E8000300CC0F3012B0CEB8B03D3F800C000F027
:102E90001F0E4FF01F0B0BFA0EFB2CEA0B0C00F071
:102EA0001F0BC2F3846E0EFA0BFE4CEA0E0CC3F835
:102EB00000C000BF206805F0CAFD8146206805F00B
:102EC000ADFD0746B9F1000F7ED1002FFCD1AA68F5
:102ED0002968206805F0D6FDC3492068884208D1DA
:102EE00068692168C968C1F3C101490000FA01F8A5
:102EF00025E0C148006800F07040B0F1805F07D164
:102F000068692168C968C1F382014900884015E0F9
:102F10002068C06800F0100040B968692168C9687D
:102F2000C1F382014900884008E0F2E26869216843
:102F3000C96801F010018908490088408046286965
:102F400004287CD021684346D5F810C02A6801F1D6
:102F5000600B0BEB8C00DFF890B259450AD1D0F82A
:102F600000B002F0F84E4EF0004E4EEA030EC0F8EC
:102F700000E00BE0D0F800B00BF0004B02F0F84E90
:102F80004EEA030E4BEA0E0BC0F800B000BF9649A4
:102F90002068884231D12068EA692969924B9842B9
:102FA0000CD100F1600C0CEB8103D3F800C02CF0C5
:102FB000807C4CEA020CC3F800C000BF00BF206850
:102FC00095F82020296900E0F5E0012A01D1520698
:102FD00000E000221346844A90420CD100F1600CBC
:102FE0000CEB8102D2F800C02CF0007C4CEA030C00
:102FF000C2F800C000BF00BF21E1206895F8212081
:103000002969012A01D1D20700E000221346764A3D
:1030100090420CD000F1600C0CEB8102D2F800C0A1
:103020002CF0004C4CEA030CC2F800C000BF00BFFB
:1030300020682B7E2969012B02D1DB0201E00DE023
:1030400000231A46036923F4F04301F01F0C02FA2F
:103050000CFC43EA0C03036100BFF0E06249206806
:10306000884271D10021206805F0CFFCC0F3130025
:1030700030B90021206805F0C8FCC0F3846007E087
:103080000021206805F0C1FC90FAA0F0B0FA80F0B1
:103090002968C1F3130119B92968C1F3846104E0F7
:1030A000296891FAA1F1B1FA81F1884204D1002294
:1030B0001146206805F000FD0121206805F0A5FCFF
:1030C000C0F3130030B90121206805F09EFCC0F365
:1030D000846007E00121206805F097FC90FAA0F0D9
:1030E000B0FA80F02968C1F3130119B92968C1F356
:1030F000846104E0296891FAA1F1B1FA81F1884272
:1031000004D100220121206805F0D6FC02212068AC
:1031100005F07BFCC0F3130030B90221206805F0F4
:1031200074FCC0F3846007E00221206805F06DFCA8
:1031300090FAA0F0B0FA80F02968C1F3130121B928
:103140002968C1F3846105E036E0296891FAA1F1AC
:10315000B1FA81F1884204D100220221206805F0F1
:10316000ABFC0321206805F050FCC0F3130030B91C
:103170000321206805F049FCC0F3846007E00321C7
:10318000206805F042FC90FAA0F0B0FA80F02968BF
:10319000C1F3130119B92968C1F3846104E02968F6
:1031A00091FAA1F1B1FA81F1884248D100220321BC
:1031B000206805F081FC42E02068006E00F0F840D5
:1031C0002978B0EB816F05D12068006E20F00040B7
:1031D000216808662068406E00F0F8402978B0EB5E
:1031E000816F10D1206809E0006002580000FF479D
:1031F00000200240002102400010005C406E20F0E0
:103200000040216848662068806E00F0F840297808
:10321000B0EB816F05D12068806E20F000402168FE
:1032200088662068C06E00F0F8402978B0EB816FA6
:1032300005D12068C06E20F000402168C866206873
:1032400005F0F6FB00286FD12068EA682968B74BC3
:10325000984212D1D0F8B030C1F3130C23EA0C031A
:1032600002F0180BDFF8C8C22CFA0BFC0CEA010CB8
:1032700043EA0C03C0F8B03011E0D0F8C030C1F31D
:10328000130C23EA0C0302F0180BDFF8A4C22CFA8B
:103290000BFC0CEA010C43EA0C03C0F8C03000BF81
:1032A000A449E86888427DD12B68C3F313031BB996
:1032B0002B68C3F3846304E02B6893FAA3F3B3FA97
:1032C00083F35B1C03F01F03092B3FD82B68C3F368
:1032D00013031BB92B68C3F3846304E02B6893FAD0
:1032E000A3F3B3FA83F35B1C03F01F034FF0010C4D
:1032F0000CFA03FC2B68C3F313031BB92B68C3F34D
:10330000846304E02B6893FAA3F3B3FA83F35B1CA2
:1033100003F01F034CEA836C2B68C3F3130323B938
:103320002B68C3F3846305E0B1E02B6893FAA3F341
:10333000B3FA83F35B1C03F01F0303EB43034FF06B
:10334000000B4BEA03534CEA030340E02B68C3F342
:1033500013031BB92B68C3F3846304E02B6893FA4F
:10336000A3F3B3FA83F35B1C03F01F034FF0010CCC
:103370000CFA03FC2B68C3F313031BB92B68C3F3CC
:10338000846304E02B6893FAA3F3B3FA83F35B1C22
:1033900003F01F034CEA836C2B68C3F313032BB9B0
:1033A0002B6800E018E0C3F3846304E02B6893FA11
:1033B000A3F3B3FA83F35B1C03F01F030A3B03EB95
:1033C00043034FF0007B4BEA03534CEA03031946D7
:1033D000AA68206805F056FB286800F00040002825
:1033E00055D0554A2168914203D0544A21689142F0
:1033F00001D1534900E053490846816801F0E07665
:1034000000BF4D492068884203D04C49206888425B
:1034100001D14B4800E04B484949884209D1464810
:1034200005F006FB8346454805F002FB4BEA000029
:1034300002E03E4805F0FCFAF0BB434928688842A8
:1034400026D106F4000018BB38492068884266D1AE
:10345000394B22689A4203D0384B22689A4201D1F4
:10346000374A00E0374A104646F4000105F01EFBDB
:10347000364800683649B0FBF1F0401C400000902F
:1034800002E00098401E009000980028F9D146E024
:1034900030492868884219D106F08070B0B92349B4
:1034A000206888423BD1244B22689A4203D0234BA8
:1034B00022689A4203D100E024E0214A00E0214A38
:1034C000104646F0807105F0F1FA28E0224928689C
:1034D000884224D106F4800008BB14492068884241
:1034E0001DD1154B22689A4203D0144B22689A4290
:1034F00001D1134A00E0134A104646F4800105F05A
:10350000D5FA0CE0206E40F0200020664FF0010A52
:1035100005E0206E40F0200020664FF0010A00BF59
:10352000002084F85C0000BF504680E40060025830
:10353000FFFF0F000000FF47002002400021024073
:103540000023024000630258000052C71800002404
:10355000400D0300000021C3000084CB704770477A
:10356000704700002DE9F84F04464FF00009002095
:10357000009014B90120BDE8F88F206920B1202007
:10358000005D012800D100BF206E30B9204600F058
:1035900089F90020606684F85C0020688168C1F3C6
:1035A000407131B120688168B24A1140816000BF2A
:1035B00000BF206805F046FAA8B920688168AE4AC5
:1035C000114041F08051816000BFAC480068AC49B7
:1035D000B0FBF1F0401C009002E00098401E00900B
:1035E00000980028F9D1206805F02CFA48B9206E1F
:1035F00040F010002066606E40F0010060664FF001
:103600000109206805F023FA0646206E00F010003C
:1036100000287DD1002EFCD1206E20F4807040F077
:1036200002002066206805F003FA78BB95492068FF
:10363000884203D094492068884201D1934800E031
:1036400093489249884209D18E4805F0F1F98246A3
:103650008D4805F0EDF94AEA000002E08D4805F0DA
:10366000E7F998B9874B22689A4203D0864B2268C3
:103670009A4201D1854A00E0854A10466168826815
:1036800022F47C120A43826000BF00BF8149206897
:10369000884223D1607EE16B41EA4030E168084313
:1036A000A168082901D100210FE0A1680C2901D1EE
:1036B00004210AE0A1681C2901D1082105E0A168C4
:1036C000182901D11C2100E0002101F00C0140EA81
:1036D00041012020005D41EA004509E0607EE16B88
:1036E00041EA4030A16808432021095D40EA0145D4
:1036F0002020005D012803D1A08C401E45EA4045F2
:10370000A06A38B1208D00F47870E16A084300E0C7
:10371000A7E005435F49206888420FD12068C06850
:103720005D49084028432168C8602068006920F08E
:103730004060616B08432168086106E02068C0684A
:103740005649084028432168C860206805F07FF981
:103750008046206805F062F90746B8F1000F66D18F
:10376000002F64D14B492068884206D1207E810316
:1037700094F8380041EA400503E0207E216B41EADD
:1037800080352068C06844F20301884328432168DB
:10379000C86094F84400012834D13E49206888422A
:1037A00000D100E000BFA06A08B1E06A00B900BF24
:1037B00038492068884210D1A06C40F00101E06CCB
:1037C0000843216D0843616D084321680969344A43
:1037D00011400843216808611AE0B4F84800401E0F
:1037E000012141EA0041E06C0843216D0843616D0D
:1037F0000843216809692A4A521E1140084321687A
:10380000086105E02068006920F001002168086176
:103810002068006920F07040216C0843216808612D
:103820001C492068884202D02046FEF7ADFB206983
:10383000012809D12068006B20F00F00E169491EC2
:1038400008432168086305E02068006B20F00F0042
:1038500021680863206E20F0020040F0010020661D
:1038600005E0206E40F0100020664FF00109484648
:1038700081E60000C0FFFF5FC0FFFF7F180000244B
:10388000400D0300002002400021024000230240BE
:1038900000630258006002580740F0FF03C0F0FFC9
:1038A0001FF800FC10B5B4B0044614212FA8FCF793
:1038B000D9FFB42102A8FCF7D5FF4A492068884205
:1038C0007ED14FF4002002902020039080210491AB
:1038D000022105910691079140210891002109914B
:1038E0000A910020299002A802F0A4FC08B1FFF779
:1038F0005FF900BF3C48006840F020003A4908608A
:103900000846006800F02000019000BF00BF00BF23
:1039100035480830006840F0040033490831086039
:103920000846006800F00400019000BF00BF00BF1F
:103930000846006840F0010008600846006800F092
:103940000100019000BF00BF00BF0846006840F0C2
:10395000020008600846006800F00200019000BF05
:1039600000BF32202F9003203090002031902FA9EB
:103970001E4801F08BFBC0202F90032030900020C8
:1039800031902FA91A4801F081FB02202F900320CB
:103990003090002031902FA9164801F077FB16488F
:1039A0001649086009204860002114488160C16000
:1039B0004FF480610161490041618900816100E04B
:1039C0000EE04911C16100210162416200F04CFE2C
:1039D00008B1FFF7EDF800BF0848A065846300BF99
:1039E00034B010BD00200240D844025800080258EC
:1039F0000000025800040258100002404401002454
:103A00002DE9F04104460F469046514A2168914203
:103A100003D0504A2168914201D14F4900E04F49FB
:103A2000084604F0EDFF0646206805F010F800286F
:103A30007CD100BF94F85C00012802D10220BDE8CF
:103A4000F081012084F85C0000BF1EB1052E01D07A
:103A5000092E73D12046FEF7D9FB0546002D68D10B
:103A6000206E40F60161884340F480702066394939
:103A70002068884201D1364800E0206821688842E9
:103A800000D01EB9206E20F480102066206E00F455
:103A9000805020B1606E20F00600606601E00020DA
:103AA00060662F48A16DC8632E48A16D08642E483A
:103AB000A16DC8641C202168086000BF002084F844
:103AC0005C0000BF2068406840F01000216848603A
:103AD00026492068884213D194F838205100206884
:103AE000224A904204D1C26822F003020A43C26013
:103AF00000BF2068C16841F00101C16000BF08E05B
:103B0000216B2068C26822F003020A43C26000BF32
:103B100000BF226802F1400143463A46A06D01F021
:103B20002DF80546206804F0A5FF0EE00CE005E046
:103B3000FFE700BF002084F85C0006E0012500BF1D
:103B4000002084F85C0000E00225284677E70000AA
:103B5000002002400021024000230240006302587E
:103B6000B9200008692100084B21000800600258B4
:103B70002DE9F84F044600200090FE4800684FF4FD
:103B80001651B0FBF1FAA66DD4F858803768D8F812
:103B90000090F9492068884249D0F74918312068D7
:103BA000884244D0F4493031206888423FD0F249FD
:103BB0004831206888423AD0EF4960312068884215
:103BC00035D0ED4978312068884230D0EA499031CB
:103BD000206888422BD0E849A8312068884226D046
:103BE000E6492068884222D0E4491831206888429A
:103BF0001DD0E24930312068884218D0DF49483171
:103C00002068884213D0DD496031206888420ED098
:103C1000DA4978312068884209D0D8499031206843
:103C2000884204D0D549A8312068884201D10120BA
:103C300000E0002000287DD094F85C0000F01F0117
:103C4000082088403840002868D0CB492068884246
:103C500049D0C94918312068884244D0C64930311A
:103C6000206888423FD0C4494831206888423AD011
:103C7000C14960312068884235D0BF497831206819
:103C8000884230D0BC499031206888422BD0BA4954
:103C9000A8312068884226D0B8492068884222D0BE
:103CA000B6491831206888421DD0B44930312068A7
:103CB000884218D0B14948312068884213D0AF49B2
:103CC0006031206888420ED0AC4978312068884243
:103CD00009D0AA4990312068884204D0A749A83168
:103CE0002068884204D12068006800F0040003E0E6
:103CF0002068006800F0080080B12068006820F0AB
:103D000004002168086094F85C0000F01F0108209E
:103D10008840B060606D40F00100606594F85C0020
:103D200000F01F01012088403840E8B39249206824
:103D3000884200E0B7E24BD08F49183120688842B2
:103D400046D08D4930312068884241D08A49483177
:103D5000206888423CD0884960312068884237D04A
:103D6000854978312068884232D083499031206873
:103D700088422DD08049A8312068884228D07F49C8
:103D80002068884224D07D491831206888421FD09D
:103D90007A493031206888421AD078494831206801
:103DA000884215D0754900E026E0603120688842DD
:103DB0000ED0724978312068884209D06F4990311D
:103DC0002068884204D06D49A8312068884204D117
:103DD0002068406900F0800002E020680068002050
:103DE00050B194F85C0000F01F0101208840B060E1
:103DF000606D40F00200606594F85C0000F01F0107
:103E0000042088403840E8B35B49206888424BD0A2
:103E1000594918312068884246D0574930312068C6
:103E2000884241D054494831206888423CD05249A8
:103E300060312068884237D04F4978312068884205
:103E400032D04D499031206888422DD04A49A8315E
:103E50002068884228D049492068884224D04749B0
:103E60001831206888421FD0444930312068884288
:103E70001AD0424948312068884215D03F49603104
:103E8000206800E024E088420ED03C497831206868
:103E9000884209D0394990312068884204D0374996
:103EA000A8312068884204D12068006800F0020030
:103EB00002E020680068002050B194F85C0000F037
:103EC0001F0104208840B060606D40F00400606510
:103ED00094F85C0000F01F01102088403840E8B3DF
:103EE00025492068884251D02349183120688842EA
:103EF0004CD0214930312068884247D01E49483192
:103F00002068884242D01C496031206888423DD0F8
:103F1000194978312068884238D017499031206893
:103F2000884233D01449A831206888422ED01349E2
:103F3000206888422AD0114918312068884225D04B
:103F40000E4930312068884220D00C494831206821
:103F500088421BD009496031206800E04DE088426A
:103F600014D006497831206888420FD00349903137
:103F7000206805E0180000241000024010040240F0
:103F8000884203D0FE492068884204D12068006836
:103F900000F0080003E02068006800F0040060B34F
:103FA00094F85C0000F01F0110208840B060206889
:103FB000006800F4802080B12068006800F40020D0
:103FC00028B9206CC8B12046216C884715E0A06C48
:103FD00098B12046A16C88470FE02068006800F483
:103FE000807028B92068006820F008002168086007
:103FF000206C10B12046216C884794F85C0000F0DA
:104000001F0120208840384000287DD0DD492068ED
:10401000884249D0DB4918312068884244D0D949C8
:104020003031206888423FD0D649483120688842E4
:104030003AD0D44960312068884235D0D1497831AE
:104040002068884230D0CF499031206888422BD0F8
:10405000CC49A8312068884226D0C949A8392068AF
:10406000884221D0C6499039206888421CD0C44972
:1040700078392068884217D0C14960392068884261
:1040800012D0BF494839206888420DD0BC49303928
:104090002068884208D0BA4918392068884203D07D
:1040A000B7492068884204D12068006800F01000F9
:1040B00003E02068006800F0020028B394F85C0078
:1040C00000F01F0120208840B06094F835000428DB
:1040D0002DD12068006820F0160021680860206853
:1040E000406920F0800021684861206C08B9A06C0C
:1040F00028B12068006820F008002168086094F862
:104100005C0000F01F0100E03FE03F208840B0600D
:10411000012084F8350000BF002084F8340000BF7F
:10412000206D10B12046216D8847BDE8F88F2068CA
:10413000006800F4802080B12068006800F400204E
:1041400028B9606C08B32046616C88471DE0E06BBD
:10415000D8B12046E16B884717E02068006800F47A
:10416000807068B92068006820F01000216808603D
:10417000012084F8350000BF002084F8340000BF1F
:10418000E06B10B12046E16B8847606D00287AD063
:10419000606D00F00100E8B3042084F8350079492F
:1041A000206888424BD0774918312068884246D031
:1041B000744930312068884241D0724948312068C2
:1041C00088423CD06F4960312068884237D06D49C1
:1041D00078312068884232D06A499031206888421C
:1041E0002DD06849A8312068884228D06449A83970
:1041F0002068884223D062499039206888421ED0C6
:104200005F4978392068884219D05D496039206853
:10421000884200E040E012D059494839206888427D
:104220000DD0574930392068884208D05449183990
:104230002068884203D052492068884206D120680D
:10424000006820F001002168086005E0206800682F
:1042500020F001002168086000BF0098401C009019
:10426000504500D905E02068006800F001000028F2
:10427000F3D100BF2068006800F0010020B10320E6
:1042800084F8350003E00DE0012084F8350000BF1C
:10429000002084F8340000BFE06C002802D02046E3
:1042A000E16C8847D9E138492068884222D03649F4
:1042B0001431206888421DD0334928312068884253
:1042C00018D031493C312068884213D02E495031F2
:1042D000206888420ED02C4964312068884209D079
:1042E000294978312068884204D027498C312068D8
:1042F000884201D1012000E000200028D2D02068AF
:10430000056894F85C0000F01F010420884000EA72
:104310000900D8B305F00400C0B394F85C0000F0C5
:104320001F0104208840C8F8040005F4004080B153
:1043300005F4803030B9A06C0028B3D02046A16CC1
:1043400088478AE1206C0028ACD02046216C884741
:1043500083E105F02000E8BB0A492068884253D079
:1043600008491831206888424ED00649303120680B
:10437000884249D0034948312068884244D006E049
:10438000B804024010000240085402584FE0B449FB
:1043900060312068884237D0B1497831206888423E
:1043A00032D0AF499031206888422DD0AC49A83135
:1043B0002068884228D0AB492068884224D0A94987
:1043C0001831206888421FD0A649303120688842C1
:1043D0001AD000E025E0A34948312068884213D074
:1043E000A0496031206888420ED09E49783120680B
:1043F000884209D09B4990312068884204D099496D
:10440000A8312068884206D12068006820F00800A2
:104410002168086005E02068006820F00400216839
:104420000860206C10B32046216C884715E194F891
:104430005C0000F01F010220884000EA0900E8B398
:1044400005F00200D0B394F85C0000F01F010220D8
:104450008840C8F8040005F4004070B105F48030CD
:1044600028B9606C10B12046616C8847F5E0E06BBC
:10447000F0B32046E16B8847EFE005F02000C0BBB9
:104480007749206888424ED07549183120688842A3
:1044900049D0734930312068884244D0704948314E
:1044A000206888423FD06E496031206888423AD007
:1044B0006B4978312068884235D000E04EE0684989
:1044C0009031206888422ED06549A8312068884202
:1044D00029D064492068884225D062491831206873
:1044E000884220D05F493031206888421BD001E0EB
:1044F0006EE02DE05B4948312068884213D059496D
:104500006031206888420ED0564978312068884250
:1045100009D0544990312068884204D05149A831CB
:104520002068884206D12068006820F014002168C5
:10453000086005E02068006820F00A002168086033
:10454000012084F8350000BF002084F8340000BF4B
:10455000E06BE8B32046E16B88477EE094F85C00AE
:1045600000F01F010820884000EA090080B305F030
:10457000080068B33A49206888424BD0384918315E
:104580002068884246D0364930312068884241D080
:1045900033494831206888423CD031496031206835
:1045A000884237D02E4978312068884232D02C4951
:1045B0009031206888422DD02949A831206888424E
:1045C00028D028492068884224D02649183100E0A4
:1045D00043E0206888421DD022493031206888425B
:1045E00018D0204948312068884213D01D496031D5
:1045F000206888420ED01B4978312068884209D053
:10460000184990312068884204D01649A8312068A2
:10461000884206D12068006820F01C0021680860EC
:1046200005E02068006820F00E002168086094F81A
:104630005C0000F01F0101208840C8F80400012040
:10464000606584F8350000BF002084F8340000BFA6
:10465000E06C10B12046E16C884700BF65E50000C2
:1046600010000240100402402DE9F041044600F021
:104670001DFE804614B90120BDE8F081FE49206886
:10468000884249D0FC4918312068884244D0FA4910
:104690003031206888423FD0F7494831206888424D
:1046A0003AD0F54960312068884235D0F2497831F6
:1046B0002068884230D0F0499031206888422BD061
:1046C000ED49A8312068884226D0EC49206888420C
:1046D00022D0EA491831206888421DD0E74930319C
:1046E0002068884218D0E54948312068884213D0B4
:1046F000E2496031206888420ED0E0497831206874
:10470000884209D0DD4990312068884204D0DB49D5
:10471000A8312068884201D1012000E00020002853
:1047200073D0606A00B100BF022084F8350000BF7A
:10473000002084F8340000BFCF492068884249D067
:10474000CD4918312068884244D0CB4930312068A7
:1047500088423FD0C8494831206888423AD0C6498B
:1047600060312068884235D0C3497831206888425A
:1047700030D0C1499031206888422BD0BE49A83141
:104780002068884226D0BD492068884222D0BB4993
:104790001831206888421DD0B849303120688842DD
:1047A00018D0B64948312068884213D0B3496031E7
:1047B000206888420ED0B14978312068884209D0FB
:1047C000AE4990312068884204D0AC49A8312068B5
:1047D000884206D12068006820F001002168086046
:1047E00005E02068006820F00100216808600DE005
:1047F00000F05CFDA0EB0800052807D920206065CB
:10480000032084F83500012036E769E0206800685D
:1048100000F001000028EBD12068056898480540A9
:10482000D4E9020108432169084361690843A16989
:104830000843E1690843216A08430543606A042884
:1048400003D1D4E90B01084305436068292802D34A
:1048500060682E2817D960683F2802D36068422814
:1048600011D96068472802D3606848280BD960686E
:104870004F2802D36068522805D96068742804D391
:104880006068772801D8012000E0002008B145F4D5
:104890008015206805602068456925F00705606A75
:1048A0000543606A04280DD1A06A0543E06A48B157
:1048B0002046FDF73FFE28B140206065012084F8C6
:1048C0003500D9E6206845612046FDF70FFD064614
:1048D00094F85C0000F01F013F208840B0609EE02B
:1048E00068492068884222D066491431206888428D
:1048F0001DD0644928312068884218D061493C3174
:104900002068884213D05F495031206888420ED019
:104910005C4964312068884209D05A49783120685E
:10492000884204D057498C312068884201D1012047
:1049300000E00020E0B353492068884222D051496A
:104940001431206888421DD04E49283120688842A1
:1049500018D04C493C312068884213D04949503125
:10496000206888420ED0474964312068884209D0C7
:10497000444978312068884204D042498C3120680B
:10498000884201D1012000E0002000B100BF0220D8
:1049900084F8350000BF002084F8340000BF206890
:1049A000056839480540A068402802D1102106E07A
:1049B0002EE0A068802801D1C10100E00021E0685C
:1049C00041EAD001206941EAD001606941EAD001A1
:1049D000A06941EAD001E06941EAD001206A41EAD8
:1049E000101005432068056026492068401A1421EC
:1049F000B0FBF1F08000E0652046FDF777FC07464C
:104A000094F85C0000F01F0101208840786006E007
:104A100040206065032084F8350001202CE616490B
:104A2000206888427AD0144918312068884275D0AD
:104A3000114930312068884270D00F4948312068D0
:104A400088426BD00C4960312068884266D00A49A0
:104A500078312068884261D00749903120688842C7
:104A60005CD00549A8312068884257D003492068A6
:104A7000884253D0014909E010000240100402406E
:104A80003F8010FE085402580F00FEFF18312068C6
:104A9000884243D03749206888423FD03549183191
:104AA000206888423AD0334930312068884235D076
:104AB000304948312068884230D02E496031206822
:104AC00088422BD02B4978312068884226D02A4949
:104AD0002068884222D028491431206888421DD09D
:104AE000254928312068884218D023493C31206864
:104AF000884213D020495031206888420ED01E4988
:104B000064312068884209D01B4978312068884286
:104B100004D019498C312068884201D1012000E07D
:104B2000002000B32046FDF757FCA068802801D183
:104B3000002060602079216E0860D4E91910486077
:104B4000606860B16068082809D82046FDF7A6FCB7
:104B50000020E16E0860D4E91C10486003E00020EA
:104B6000E0662067606700206065012084F83500FA
:104B7000002081E540040240085402582DE9F0412C
:104B800004460D4616461F464FF0000814B9012092
:104B9000BDE8F08100BF94F83400012801D1022063
:104BA000F6E7012084F8340000BF94F835000128AE
:104BB0007ED1022084F8350000206065E449206839
:104BC000884249D0E24918312068884244D0E049FF
:104BD0003031206888423FD0DD4948312068884222
:104BE0003AD0DB4960312068884235D0D8497831E5
:104BF0002068884230D0D6499031206888422BD036
:104C0000D349A8312068884226D0D24920688842FA
:104C100022D0D0491831206888421DD0CD4930318A
:104C20002068884218D0CB4948312068884213D088
:104C3000C8496031206888420ED0C6497831206862
:104C4000884209D0C34990312068884204D0C149C4
:104C5000A8312068884206D12068006820F0010051
:104C60002168086005E02068006820F001002168E4
:104C700008603B46324629462046FDF7B3FCB4495E
:104C8000206888424BD0B24918312068884246D00B
:104C9000AF4930312068884241D0AD494831206861
:104CA00088423CD0AA4960312068884237D000E071
:104CB00042E1A74978312068884230D0A449903138
:104CC000206888422BD0A249A8312068884226D08B
:104CD000A0492068884222D09E4918312068884225
:104CE0001DD09C4930312068884218D099494831FC
:104CF0002068884213D097496031206888420ED0DE
:104D0000944978312068884209D0924990312068CE
:104D1000884204D08F49A8312068884201D10120FF
:104D200000E0002080B12068006820F01E0040F004
:104D3000160021680860206CB0B12068006840F05F
:104D40000800216808600FE02068006820F00E006D
:104D500040F00A0021680860206C28B120680068D3
:104D600040F004002168086079492068884270D0CA
:104D700077491831206888426BD0754930312068F6
:104D8000884266D0724948312068884261D07049B3
:104D90006031206888425CD06D4978312068884253
:104DA00057D06B4990312068884252D06849A83169
:104DB000206888424DD067492068884249D06549BB
:104DC00018312068884244D06249303120688842D6
:104DD0003FD060494831206888423AD05D4960310F
:104DE0002068884235D05B4978312068884230D0CD
:104DF00058499031206888422BD05649A831206804
:104E0000884226D054492068884222D05249143121
:104E1000206888421DD0504928312068884218D027
:104E20004D493C312068884213D04B4950312068AD
:104E300088420ED0484964312068884209D04649EA
:104E400078312068884204D043498C3120688842F8
:104E500001D1012000E0002090B1206E006800F434
:104E6000803028B1206E006840F48070216E0860A8
:104E7000E06E28B1E06E006840F48070E16E08607A
:104E800033492068884249D0314918312068884226
:104E900044D02F493031206888423FD02C494831D6
:104EA000206888423AD02A4960312068884235D04B
:104EB000274978312068884230D0254990312068D0
:104EC00088422BD02249A8312068884226D0214927
:104ED0002068884222D01F491831206888421DD09E
:104EE0001C4930312068884218D01A49483120685E
:104EF000884213D017496031206888420ED0154986
:104F000078312068884209D012499031206888425F
:104F100004D01049A8312068884206D12068006872
:104F200040F001002168086010E02068006840F04F
:104F300001002168086009E04FF40060606500BF6F
:104F4000002084F8340000BF4FF0010840461FE6FF
:104F500010000240100402400854025810B50446E4
:104F600006F09CF9012C17D10A2005F07BFD0121E8
:104F70002B4800F083F900284FD12AA006F0EEF963
:104F80002C480078401C2B490870084600780128FE
:104F900043DD0020087040E0B4F5006F18D10A200E
:104FA00005F060FD4FF400611D4800F067F900282E
:104FB00033D121A006F0D2F923480078401C2249C1
:104FC000087008460078012827DD0020087024E0DA
:104FD000B4F5004F17D10A2005F044FD4FF400410D
:104FE0000F4800F04BF9C0B918A006F0B7F91B48FC
:104FF0000078401C194908700846007801280CDD2B
:105000000020087009E016A006F0A8F90020094960
:1050100008700D4908701149087006F04FF910BD6D
:105020000010025853573220696E746572727570A1
:10503000740D0A000C00002453573320696E746508
:1050400072727570740D0A000D00002453573420DD
:10505000696E746572727570740D0A000E0000241A
:1050600053573520696E746572727570740D0A003D
:1050700010B5044604480068204020B1024804608E
:105080002046FFF76BFF10BD88000058F8B50246B8
:105090000B4600216D4DD2E001278F401E6806EAC5
:1050A0000704002C72D01E7906F00306012E04D0EE
:1050B0001E7906F00306022E13D190684F000326D6
:1050C000BE40B0434F00DE68BE4030439060506841
:1050D00001268E40B0431E79C6F300168E40304341
:1050E00050601E7906F00306032E09D0D0684F00E9
:1050F0000326BE40B0434F009E68BE403043D060A0
:105100001E7906F00306022E13D1CF0802F1200605
:1051100056F827004E07F70E0F26BE40B0434F0744
:10512000FF0E1E69BE403043CF0802F1200646F84C
:10513000270010684F000326BE40B0431E7906F0DA
:1051400003064F00BE40304310605E6806F44036F0
:10515000002E73D000BF3E4E366846F002063C4F2C
:105160003E603E46366806F00206009600BF00BF6D
:10517000384E8F0856F827008E07370F0F26BE408F
:10518000B043354EB24202D1002629E056E0334EFC
:10519000B24201D1012623E0314EB24201D10226B2
:1051A0001EE0304EB24201D1032619E02E4EB2422B
:1051B00001D1042614E02D4EB24201D105260FE0A4
:1051C0002B4EB24201D106260AE02A4EB24201D14C
:1051D000072605E0284EB24201D1092600E00A2642
:1051E0008F073F0FBE4030431A4E8F0846F8270006
:1051F0004FF0B0463068A0435E6806F4801606B1F2
:1052000020434FF0B04630607068A0435E6806F4FB
:10521000001606B120434FF0B04670606868A043A6
:105220005E6806F4003606B1204368602868A04333
:105230005E6806F4803606B120432860491C1E686B
:10524000CE40002E7FF428AFF8BD0000800000584B
:10525000F4440258080400580000025800040258A0
:1052600000080258000C025800100258001402589E
:1052700000180258001C0258002402580246136904
:105280000B400BB1012000E00020704710B54269CF
:1052900021EA020302EA010443EA0443836110BDE8
:1052A0000AB1816101E00B04836170470148006825
:1052B0007047000020000024034800680349097873
:1052C0000844014908607047200000242800002499
:1052D00010B5032000F0E0F801F026FF104909683E
:1052E000C1F303210F4A515C01F01F0120FA01F4C0
:1052F0000B48006800F00F001146085C00F01F002A
:1053000024FA00F008490860084804600F2000F003
:105310000FF808B1012010BD00F05AF80020FAE79C
:10532000184402588EC200081C00002418000024F3
:10533000F0B58BB00446102C0AD20022214637204B
:1053400000F06CF8372000F055F81C48046002E0CB
:1053500001200BB0F0BD00BF1948006840F02000EC
:10536000174908600846006800F02000019000BF5F
:1053700000BF02A903A801F057FE089E1EB901F064
:10538000AFFE054602E001F0ABFE45000D48B5FB5F
:10539000F0F0471E0C480D49086040F2E7310B4819
:1053A000C160476000210161816002F0E5FB18B92E
:1053B000064802F095FCCCE70120CAE7240000244F
:1053C000E844025840420F00001400401404002436
:1053D00008B500BF0648006840F0020004490860B4
:1053E0000846006800F00200009000BF00BF08BD42
:1053F000F44402580146084600280DDB00BF00BFF8
:1054000000F01F0301229A4043099B0003F1E023AF
:10541000C3F8002100BF00BF00BF70472DE9F05F57
:1054200080460D46164605F053FA074639462A4689
:10543000334601F00700C0F1070ABAF1040F02D9A0
:105440004FF0040A01E0C0F1070AD14600F1040A56
:10545000BAF1070F02D24FF0000A01E0A0F1030AEF
:10546000D4464FF0010A0AFA09FAAAF1010A0AEA37
:10547000020A0AFA0CFA4FF0010B0BFA0CFBABF123
:10548000010B0BEA030B4AEA0B042146404605F0E8
:1054900027FABDE8F09F000000BF00F00702064BAE
:1054A00019684FF6FF031940044B0B4343EA0221EE
:1054B000014B196000BF70470CED00E00000FA05D9
:1054C00070B5044615480068C0F3800048B9134819
:1054D000006800F00700A04201D0012070BD00204C
:1054E000FCE70E48006820F0070020430B490860E5
:1054F000FFF7DCFE054607E0FFF7D8FE401BB0F5DE
:105500007A7F01D90120E9E7044808380068C0F330
:1055100040300028F0D00020E0E700000C4802589E
:1055200010B501F0B7FD05490968C1F30211044A3D
:10553000515C01F01F01C84010BD0000204402581A
:105540008EC2000870B50146844D2D6805F0030336
:10555000824D2D68C5F30510804D2D1D2D6805F079
:1055600001047E4D0C352D68C5F3CC0515FB04F503
:1055700001EE105AB8EE411AF0EE410A00286FD041
:1055800023B1012B4ED0022B6BD16BE0734D283D24
:105590002D68C5F340153DB3704D283D2D68C5F30A
:1055A000C1066F4D25FA06F201EE102AF8EE411AF7
:1055B00001EE100AB8EE411A81EE812A9FED691AB8
:1055C000C0EE811A654D08352D68C5F3080501EE5A
:1055D000105AB8EE411A31EE811AF7EE001A31EE88
:1055E000211A22EE010A1CE001EE100AB8EE411A5F
:1055F000DFED5D1A81EE812A9FED5A1AC0EE811A05
:10560000564D08352D68C5F3080501EE105AB8EE61
:10561000411A31EE811AF7EE001A31EE211A22EE0C
:10562000010A5BE001EE100AB8EE411ADFED4F1AF5
:1056300081EE812A9FED4B1AC0EE811A474D083545
:105640002D68C5F3080501EE105AB8EE411A31EE87
:10565000811AF7EE001A31EE211A22EE010A3DE01E
:1056600077E01DE001EE100AB8EE411A9FED402AE6
:10567000C2EE011A9FED3B1A80EE812A374D0835A4
:105680002D68C5F3080501EE105AB8EE411A32EE46
:10569000011AB7EE002A31EE021A21EE810A1DE04E
:1056A00001EE100AB8EE411ADFED2F1A81EE812AC1
:1056B0009FED2C1AC0EE811A284D08352D68C5F3D0
:1056C000080501EE105AB8EE411A31EE811AF7EED4
:1056D000001A31EE211A22EE010A00BF00BF1F4D51
:1056E00008352D68C5F3462501EE105AB8EE411A6B
:1056F000F7EE001A31EE211AC0EE011ABCEEE11AE3
:1057000081ED001A154D08352D68C5F3064501EEEB
:10571000105AB8EE411AF7EE001A31EE211AC0EE17
:10572000011ABCEEE11A81ED011A0C4D08352D6805
:10573000C5F3066501EE105AB8EE411AF7EE001AED
:1057400031EE211AC0EE011ABCEEE11A81ED021A07
:1057500003E000250D604D608D6070BD2844025847
:105760000090D003000000460024744C0024744ACA
:105770000024F44A70B50146844D2D6805F00303FA
:10578000824D2D68C5F30530804D2D1D2D68C5F364
:1057900000147E4D14352D68C5F3CC0515FB04F5BA
:1057A00001EE105AB8EE411AF0EE410A00286FD00F
:1057B00023B1012B4ED0022B6BD16BE0734D283DF2
:1057C0002D68C5F340153DB3704D283D2D68C5F3D8
:1057D000C1066F4D25FA06F201EE102AF8EE411AC5
:1057E00001EE100AB8EE411A81EE812A9FED691A86
:1057F000C0EE811A654D10352D68C5F3080501EE20
:10580000105AB8EE411A31EE811AF7EE001A31EE55
:10581000211A22EE010A1CE001EE100AB8EE411A2C
:10582000DFED5D1A81EE812A9FED5A1AC0EE811AD2
:10583000564D10352D68C5F3080501EE105AB8EE27
:10584000411A31EE811AF7EE001A31EE211A22EEDA
:10585000010A5BE001EE100AB8EE411ADFED4F1AC3
:1058600081EE812A9FED4B1AC0EE811A474D10350B
:105870002D68C5F3080501EE105AB8EE411A31EE55
:10588000811AF7EE001A31EE211A22EE010A3DE0EC
:1058900077E01DE001EE100AB8EE411A9FED402AB4
:1058A000C2EE011A9FED3B1A80EE812A374D10356A
:1058B0002D68C5F3080501EE105AB8EE411A32EE14
:1058C000011AB7EE002A31EE021A21EE810A1DE01C
:1058D00001EE100AB8EE411ADFED301A81EE812A8E
:1058E0009FED2C1AC0EE811A284D10352D68C5F396
:1058F000080501EE105AB8EE411A31EE811AF7EEA2
:10590000001A31EE211A22EE010A00BF00BF1F4D1E
:1059100010352D68C5F3462501EE105AB8EE411A30
:10592000F7EE001A31EE211AC0EE011ABCEEE11AB0
:1059300081ED001A154D10352D68C5F3064501EEB1
:10594000105AB8EE411AF7EE001A31EE211AC0EEE5
:10595000011ABCEEE11A81ED011A0C4D10352D68CB
:10596000C5F3066501EE105AB8EE411AF7EE001ABB
:1059700031EE211AC0EE011ABCEEE11A81ED021AD5
:1059800003E000250D604D608D6070BD2844025815
:105990000090D003000000460024744C0024744A98
:1059A0000024F44A70B50146844D2D6805F00303C8
:1059B000824D2D68C5F30550804D2D1D2D68C5F312
:1059C00000247E4D1C352D68C5F3CC0515FB04F570
:1059D00001EE105AB8EE411AF0EE410A00286FD0DD
:1059E00023B1012B4ED0022B6BD16BE0734D283DC0
:1059F0002D68C5F340153DB3704D283D2D68C5F3A6
:105A0000C1066F4D25FA06F201EE102AF8EE411A92
:105A100001EE100AB8EE411A81EE812A9FED691A53
:105A2000C0EE811A654D18352D68C5F3080501EEE5
:105A3000105AB8EE411A31EE811AF7EE001A31EE23
:105A4000211A22EE010A1CE001EE100AB8EE411AFA
:105A5000DFED5D1A81EE812A9FED5A1AC0EE811AA0
:105A6000564D18352D68C5F3080501EE105AB8EEED
:105A7000411A31EE811AF7EE001A31EE211A22EEA8
:105A8000010A5BE001EE100AB8EE411ADFED4F1A91
:105A900081EE812A9FED4B1AC0EE811A474D1835D1
:105AA0002D68C5F3080501EE105AB8EE411A31EE23
:105AB000811AF7EE001A31EE211A22EE010A3DE0BA
:105AC00077E01DE001EE100AB8EE411A9FED402A82
:105AD000C2EE011A9FED3B1A80EE812A374D183530
